:020000040800F2
:1000000010040020D5000008290B0008FD0A000894
:1000100000000000000000000000000000000000E0
:100020000000000000000000000000002F0B00088E
:1000300000000000000000002D0B0008310B00083C
:10004000E7000008E7000008E7000008E7000008F4
:10005000E7000008E7000008E7000008E7000008E4
:10006000E7000008E7000008E7000008E7000008D4
:10007000E7000008E7000008E7000008E7000008C4
:10008000E7000008E700000800000000E7000008A3
:10009000E7000008E7000008E7000008E7000008A4
:1000A000E7000008E7000008E7000008E700000894
:1000B000E700000800000000E7000008044885464B
:1000C00000F090F8004800475F0C0008C046C046AA
:1000D000100400200448804704480047FEE7FEE77C
:1000E000FEE7FEE7FEE7FEE7950B0008BD0000080F
:1000F00030B50B46014600202022012409E00D46C0
:10010000D5409D4205D31D469540491B2546954047
:1001100040191546521E002DF1DC30BDF0B51FB45C
:100120000646002082B005464024019100901BE065
:10013000019922460F46304600F020F8049A059BAC
:10014000801A994110D310461946224600F039F81A
:10015000361A8F410197224601200021009F00F0AE
:1001600030F838184D4100902046641E0028DFDC2E
:10017000019B00982946324607B0F0BD10B5202AF1
:1001800004DB0846203AD040002110BD0B46D34086
:10019000D0402024A21A91400843194610BDD2B283
:1001A00001E00270401C491EFBD270470022F6E7B6
:1001B00010B513460A4604461946FFF7F0FF2046DD
:1001C00010BD10B5202A04DB0146203A91400020E2
:1001D00010BD914020239C1A0346E34019439040F0
:1001E00010BD0000064C0125064E05E0E36807CC73
:1001F0002B430C3C98471034B442F7D3FFF762FF0F
:10020000880C0008A80C000872B600BFFEE70000CA
:1002100001480068704700000000002003480068A3
:100220000349097840180149086070470000002020
:100230000800002010B50648006810210843044952
:100240000860002000F006F800F02EF8002010BD35
:100250000020024070B50446104801787D20C0009F
:10026000FFF746FF064631460D480068FFF740FF9E
:10027000054600F027FC002801D0012070BD042CA9
:1002800007D200222146501E00F02EF805480460D7
:1002900001E00120F2E70020F0E700000800002064
:1002A0000C0000200400002008B500BF0D48806944
:1002B000012108430B49886108468069C007C00FC7
:1002C000009000BF00BF00BF0846C0690904084392
:1002D0000449C8610846C06909040840009000BF8D
:1002E00000BF08BD0010024070B504460D4616461A
:1002F0002946204600F068FC70BD000070B5044639
:100300000D46002C01D1012070BD52480068C00785
:10031000C00FA8420ED24F48006840084000284352
:100320004C49086008460068C007C00FA84201D0C9
:100330000120E9E7022120680840022814D10421A5
:1003400020680840042807D1434840680721090273
:1003500088434018404948603F484068F02188433E
:10036000A16808433C4948602078C007C00F0028B6
:100370003BD06068012808D1374800680121490452
:100380000840002815D10120BEE76068022808D186
:1003900031480068012149060840002809D10120A0
:1003A000B2E72D48006802210840002801D1012051
:1003B000AAE7294840688008800061680843264908
:1003C0004860FFF725FF064607E0FFF721FF801B87
:1003D0002249884201D9032096E71F4840680C2132
:1003E0000840616889008842EFD11A480068C00758
:1003F000C00FA8420ED917480068400840002843A3
:100400001449086008460068C007C00FA84201D020
:10041000012079E7042120680840042808D10E480B
:100420004068072109028843E16808430A49486097
:1004300000F01AF808494968F02211400909084AF1
:10044000515CC840074908600020FFF703FF002007
:100450005AE700000020024000100240881300000C
:100460006E0C00080C000020F0B589B027A00146F2
:100470000EC9C06805AC0EC4089028A001460EC97C
:10048000C06801AC0EC4049000240025002700269B
:1004900000200090254844680C20204000282DD0E2
:1004A000042802D0082828D102E02148009028E042
:1004B0000F2080042040800C05A90E5C1B48C06AF8
:1004C0000007000F01A90D5C01200004204001215C
:1004D000090488420AD12A46002315481946FFF725
:1004E0001DFE314600F057FB074604E01148314637
:1004F00000F051FB0746009703E000BF0C48009056
:1005000000BF00BF009809B0F0BD00000203040561
:10051000060708090A0B0C0D0E0F10100102030448
:1005200005060708090A0B0C0D0E0F1000100240FB
:1005300000127A0000093D00FEB50446002C01D1EE
:100540000120FEBD2078C007C00F002871D0FC48F4
:1005500040680C21084004280BD0F9484068084046
:10056000082812D1F6484068012109040840884251
:100570000BD1F348006801214904084000286BD0E2
:100580006068002868D10120DBE700BF60680128AF
:1005900007D1EB480068012109040843E8490860D5
:1005A00031E0606800280ED1E548006801210904A7
:1005B0008843E349086008460068012189048843AC
:1005C000DF4908601FE0606805280ED1DC4800683C
:1005D000012189040843DA490860084600680121BE
:1005E00009040843D64908600DE0D5480068012198
:1005F00009048843D249086008460068012189043B
:100600008843CF49086000BF6068002812D0FFF718
:10061000FFFD054606E0FFF7FBFD401B642801D9FE
:1006200003208EE7C64800680121490408400028DD
:10063000F1D011E0FFF7ECFD054606E0FFF7E8FD1D
:10064000401B642801D903207BE7BD4800680121D5
:10065000490408400028F1D10221206808400228FE
:1006600061D1B74840680C21084000280BD0B4483D
:100670004068084008281BD1B1484068012109049E
:100680000840002814D1AE48006802210840002824
:1006900004D0E068012801D0012052E7A848006892
:1006A000F82188432169C9000843A54908603AE058
:1006B000E068002820D0A248006801210843A04932
:1006C0000860FFF7A5FD054606E0FFF7A1FD401B0A
:1006D000022801D9032034E7994800680221084024
:1006E0000028F2D096480068F82188432169C900A3
:1006F00008439349086016E09148006840084000AC
:100700008F490860FFF784FD054606E0FFF780FD8E
:10071000401B022801D9032013E789480068022101
:1007200008400028F2D1082120680840082831D16B
:10073000E069002817D08248406A012108438049B7
:100740004862FFF765FD054606E0FFF761FD401BC7
:10075000022801D90320F4E67948406A02210840C2
:100760000028F2D016E07648406A400840007449FC
:100770004862FFF74DFD054606E0FFF749FD401BC7
:10078000022801D90320DCE66D48406A02210840B6
:100790000028F2D1042120680840042873D10020E9
:1007A00001906748C0698906084000280ED100BF43
:1007B0006348C06908436249C8610846C0690904C2
:1007C0000840009000BF00BF012001905D48006814
:1007D000FF2101310840002816D15A48006808431B
:1007E00058490860FFF714FD054606E0FFF710FDC5
:1007F000401B642801D90320A3E652480068FF216A
:10080000013108400028F1D000BFA068012806D1BE
:100810004B48006A01210843494908622BE0A0685F
:1008200000280CD14648006A40084000444908624C
:100830000846006A04218843414908621BE0A06819
:1008400005280CD13E48006A042108433C4908624F
:100850000846006A01210843394908620BE038481C
:10086000006A40084000364908620846006A0421D0
:1008700088433349086200BFA068002813D0FFF7FF
:10088000C7FC054608E02BE0FFF7C2FC401B2E49E1
:10089000884201D9032054E62948006A0221084011
:1008A0000028F1D011E0FFF7B3FC054607E0FFF7A1
:1008B000AFFC401B2449884201D9032041E620486F
:1008C000006A022108400028F1D10198012806D1D0
:1008D0001B48C0690121090788431949C86100BF45
:1008E000102120680840102860D1606901282DD1AE
:1008F0001348406B04210843114948630846406B84
:10090000012108430E494863FFF782FC054606E0D3
:10091000FFF77EFC401B022801D9032011E608489E
:10092000406B022108400028F2D00548406BF821B6
:100930008843A169C90008430149486336E00000C3
:100940000010024000700040881300006069401DE4
:1009500000280FD15A48406B042188435849486306
:100960000846406BF8218843A169C90008435449EF
:1009700048631BE05248406B0421084350494863D8
:100980000846406B400840004863FFF741FC0546BD
:1009900006E0FFF73DFC401B022801D90320D0E50B
:1009A0004748406B022108400028F2D1206A002805
:1009B0004FD0434840680C210840082864D0206A82
:1009C000022847D13E4800680121090688433C4976
:1009D0000860FFF71DFC054606E0FFF719FC401B09
:1009E000022801D90320ACE53548006801214906F9
:1009F00008400028F1D100BF3148C06A0009000159
:100A0000E16A08432E49C862616AA06A08432C491A
:100A100049683D221204914308432949486000BFB8
:100A20000846006801210906084325490860FFF7C8
:100A3000EFFB054606E0FFF7EBFB401B022801D960
:100A400003207EE51E480068012149060840002871
:100A5000F1D033E01A48006801210906884318499B
:100A60000860FFF7D5FB054606E0FFF7D1FB401B0A
:100A7000022801D9032064E51148006801214906D4
:100A800008400028F1D119E0206A012800D158E57A
:100A90000B484668C76A012000043040616A8842FA
:100AA0000AD13907090FE06A814205D10F2080047D
:100AB0003040A16A884201D0012042E5002040E593
:100AC0000010024070B504462546681E0949884258
:100AD00001D901200CE0681E074948610321081F65
:100AE00000F072F8002004498861072008610020A6
:100AF00070BD0000FFFFFF0000E000E000BFFEE768
:100B000008B500BF07484069012189050843054928
:100B1000486108464069012189050840009000BFEE
:100B200000BF08BD0010024000BFFEE770477047DD
:100B300010B5FFF773FB10BD00B591B0302105A8CB
:100B4000FFF734FB002001900290039004900120F5
:100B50000590069002200D90C1030E91C1040F91E3
:100B60000021109105A8FFF7E7FC002801D0FFF74E
:100B70004BFB07200190022002900020039004907C
:100B8000012101A8FFF7BAFB002801D0FFF73CFBC9
:100B900011B000BD7047F8B582B28BB2040C0D0CD9
:100BA00010465843002126465E43370C3604801910
:100BB000794116466E43370C360480197941264632
:100BC0006E438919F8BD000010B5002819DB1A4AD8
:100BD00003231B02D21883089B00D2588307DC0E24
:100BE000FF23A3409A438B071B0E8407E40EA34008
:100BF0001A43114B032424021B198408A4001A5120
:100C000018E00E4A03071B0F083B9B089B00D258B5
:100C10008307DC0EFF23A3409A438B071B0E840738
:100C2000E40EA3401A43054B0407240F083CA40814
:100C3000A4001A5110BD000000E100E01CED00E02E
:100C400002E008C8121F08C1002AFAD17047704795
:100C5000002001E001C1121F002AFBD17047FFF7FD
:100C6000E9FAFFF769FFFFF74BFF00BFFEE700005F
:100C7000000000000000010203040607080900004C
:100C80000000010203040000A80C0008000000207E
:100C900010000000400C0008B80C000810000020F4
:100CA00000040000500C00080000000004000000D8
:080CB0000100000000127A00AF
:04000005080000BD32
:00000001FF
